{
  "contractName": "OracleBounty",
  "abi": [
    {
      "inputs": [],
      "stateMutability": "nonpayable",
      "type": "constructor"
    },
    {
      "inputs": [
        {
          "internalType": "bytes32",
          "name": "",
          "type": "bytes32"
        }
      ],
      "name": "feeds",
      "outputs": [
        {
          "internalType": "string",
          "name": "description",
          "type": "string"
        },
        {
          "internalType": "string",
          "name": "latestValue",
          "type": "string"
        },
        {
          "internalType": "uint256",
          "name": "lastUpdated",
          "type": "uint256"
        },
        {
          "internalType": "uint256",
          "name": "bounty",
          "type": "uint256"
        }
      ],
      "stateMutability": "view",
      "type": "function",
      "constant": true
    },
    {
      "inputs": [],
      "name": "owner",
      "outputs": [
        {
          "internalType": "address",
          "name": "",
          "type": "address"
        }
      ],
      "stateMutability": "view",
      "type": "function",
      "constant": true
    },
    {
      "stateMutability": "payable",
      "type": "receive",
      "payable": true
    },
    {
      "inputs": [
        {
          "internalType": "string",
          "name": "_id",
          "type": "string"
        },
        {
          "internalType": "string",
          "name": "_description",
          "type": "string"
        },
        {
          "internalType": "uint256",
          "name": "_bounty",
          "type": "uint256"
        }
      ],
      "name": "createFeed",
      "outputs": [],
      "stateMutability": "nonpayable",
      "type": "function"
    },
    {
      "inputs": [
        {
          "internalType": "string",
          "name": "_id",
          "type": "string"
        },
        {
          "internalType": "string",
          "name": "_newValue",
          "type": "string"
        }
      ],
      "name": "updateFeed",
      "outputs": [],
      "stateMutability": "nonpayable",
      "type": "function"
    },
    {
      "inputs": [
        {
          "internalType": "string",
          "name": "_id",
          "type": "string"
        }
      ],
      "name": "fundFeed",
      "outputs": [],
      "stateMutability": "payable",
      "type": "function",
      "payable": true
    }
  ],
  "bytecode": "0x608060405234801561001057600080fd5b5033600160006101000a81548173ffffffffffffffffffffffffffffffffffffffff021916908373ffffffffffffffffffffffffffffffffffffffff160217905550610d04806100616000396000f3fe60806040526004361061004e5760003560e01c80635c8251f91461005a5780637dd582d9146100765780638da5cb5b1461009f578063e90f1a43146100ca578063f7d1de931461010a57610055565b3661005557005b600080fd5b610074600480360381019061006f919061073d565b610133565b005b34801561008257600080fd5b5061009d6004803603810190610098919061077e565b61021e565b005b3480156100ab57600080fd5b506100b4610324565b6040516100c19190610988565b60405180910390f35b3480156100d657600080fd5b506100f160048036038101906100ec9190610714565b61034a565b60405161010194939291906109a3565b60405180910390f35b34801561011657600080fd5b50610131600480360381019061012c91906107ea565b61048a565b005b600160009054906101000a900473ffffffffffffffffffffffffffffffffffffffff1673ffffffffffffffffffffffffffffffffffffffff163373ffffffffffffffffffffffffffffffffffffffff16146101c3576040517f08c379a00000000000000000000000000000000000000000000000000000000081526004016101ba90610a16565b60405180910390fd5b6000816040516020016101d69190610971565b6040516020818303038152906040528051906020012090503460008083815260200190815260200160002060030160008282546102139190610abe565b925050819055505050565b6000826040516020016102319190610971565b60405160208183030381529060405280519060200120905060008060008381526020019081526020016000209050603c8160020154426102719190610b14565b116102b1576040517f08c379a00000000000000000000000000000000000000000000000000000000081526004016102a8906109f6565b60405180910390fd5b828160010190805190602001906102c99291906105df565b504281600201819055503373ffffffffffffffffffffffffffffffffffffffff166108fc82600301549081150290604051600060405180830381858888f1935050505015801561031d573d6000803e3d6000fd5b5050505050565b600160009054906101000a900473ffffffffffffffffffffffffffffffffffffffff1681565b600060205280600052604060002060009150905080600001805461036d90610bd0565b80601f016020809104026020016040519081016040528092919081815260200182805461039990610bd0565b80156103e65780601f106103bb576101008083540402835291602001916103e6565b820191906000526020600020905b8154815290600101906020018083116103c957829003601f168201915b5050505050908060010180546103fb90610bd0565b80601f016020809104026020016040519081016040528092919081815260200182805461042790610bd0565b80156104745780601f1061044957610100808354040283529160200191610474565b820191906000526020600020905b81548152906001019060200180831161045757829003601f168201915b5050505050908060020154908060030154905084565b600160009054906101000a900473ffffffffffffffffffffffffffffffffffffffff1673ffffffffffffffffffffffffffffffffffffffff163373ffffffffffffffffffffffffffffffffffffffff161461051a576040517f08c379a000000000000000000000000000000000000000000000000000000000815260040161051190610a16565b60405180910390fd5b60008360405160200161052d9190610971565b6040516020818303038152906040528051906020012090506040518060800160405280848152602001604051806020016040528060008152508152602001600081526020018381525060008083815260200190815260200160002060008201518160000190805190602001906105a49291906105df565b5060208201518160010190805190602001906105c19291906105df565b50604082015181600201556060820151816003015590505050505050565b8280546105eb90610bd0565b90600052602060002090601f01602090048101928261060d5760008555610654565b82601f1061062657805160ff1916838001178555610654565b82800160010185558215610654579182015b82811115610653578251825591602001919060010190610638565b5b5090506106619190610665565b5090565b5b8082111561067e576000816000905550600101610666565b5090565b600061069561069084610a67565b610a36565b9050828152602081018484840111156106ad57600080fd5b6106b8848285610b8e565b509392505050565b6000813590506106cf81610ca0565b92915050565b600082601f8301126106e657600080fd5b81356106f6848260208601610682565b91505092915050565b60008135905061070e81610cb7565b92915050565b60006020828403121561072657600080fd5b6000610734848285016106c0565b91505092915050565b60006020828403121561074f57600080fd5b600082013567ffffffffffffffff81111561076957600080fd5b610775848285016106d5565b91505092915050565b6000806040838503121561079157600080fd5b600083013567ffffffffffffffff8111156107ab57600080fd5b6107b7858286016106d5565b925050602083013567ffffffffffffffff8111156107d457600080fd5b6107e0858286016106d5565b9150509250929050565b6000806000606084860312156107ff57600080fd5b600084013567ffffffffffffffff81111561081957600080fd5b610825868287016106d5565b935050602084013567ffffffffffffffff81111561084257600080fd5b61084e868287016106d5565b925050604061085f868287016106ff565b9150509250925092565b61087281610b48565b82525050565b600061088382610a97565b61088d8185610aa2565b935061089d818560208601610b9d565b6108a681610c8f565b840191505092915050565b60006108bc82610a97565b6108c68185610ab3565b93506108d6818560208601610b9d565b80840191505092915050565b60006108ef600883610aa2565b91507f546f6f20736f6f6e0000000000000000000000000000000000000000000000006000830152602082019050919050565b600061092f600e83610aa2565b91507f4e6f7420617574686f72697a65640000000000000000000000000000000000006000830152602082019050919050565b61096b81610b84565b82525050565b600061097d82846108b1565b915081905092915050565b600060208201905061099d6000830184610869565b92915050565b600060808201905081810360008301526109bd8187610878565b905081810360208301526109d18186610878565b90506109e06040830185610962565b6109ed6060830184610962565b95945050505050565b60006020820190508181036000830152610a0f816108e2565b9050919050565b60006020820190508181036000830152610a2f81610922565b9050919050565b6000604051905081810181811067ffffffffffffffff82111715610a5d57610a5c610c60565b5b8060405250919050565b600067ffffffffffffffff821115610a8257610a81610c60565b5b601f19601f8301169050602081019050919050565b600081519050919050565b600082825260208201905092915050565b600081905092915050565b6000610ac982610b84565b9150610ad483610b84565b9250827fffffffffffffffffffffffffffffffffffffffffffffffffffffffffffffffff03821115610b0957610b08610c02565b5b828201905092915050565b6000610b1f82610b84565b9150610b2a83610b84565b925082821015610b3d57610b3c610c02565b5b828203905092915050565b6000610b5382610b64565b9050919050565b6000819050919050565b600073ffffffffffffffffffffffffffffffffffffffff82169050919050565b6000819050919050565b82818337600083830152505050565b60005b83811015610bbb578082015181840152602081019050610ba0565b83811115610bca576000848401525b50505050565b60006002820490506001821680610be857607f821691505b60208210811415610bfc57610bfb610c31565b5b50919050565b7f4e487b7100000000000000000000000000000000000000000000000000000000600052601160045260246000fd5b7f4e487b7100000000000000000000000000000000000000000000000000000000600052602260045260246000fd5b7f4e487b7100000000000000000000000000000000000000000000000000000000600052604160045260246000fd5b6000601f19601f8301169050919050565b610ca981610b5a565b8114610cb457600080fd5b50565b610cc081610b84565b8114610ccb57600080fd5b5056fea2646970667358221220659c5e97afbf072ef6a8ec89b7c325c44180f5877b7f36c69cdf0f56578f88bf64736f6c63430008000033",
  "immutableReferences": {},
  "source": "// SPDX-License-Identifier: MIT\r\npragma solidity ^0.8.0;\r\n\r\ncontract OracleBounty {\r\n    struct Feed {\r\n        string description;\r\n        string latestValue;\r\n        uint256 lastUpdated;\r\n        uint256 bounty;\r\n    }\r\n\r\n    mapping(bytes32 => Feed) public feeds;\r\n    address public owner;\r\n\r\n    constructor() {\r\n        owner = msg.sender;\r\n    }\r\n\r\n    modifier onlyOwner() {\r\n        require(msg.sender == owner, \"Not authorized\");\r\n        _;\r\n    }\r\n\r\n    function createFeed(string memory _id, string memory _description, uint256 _bounty) external onlyOwner {\r\n        bytes32 feedKey = keccak256(abi.encodePacked(_id));\r\n        feeds[feedKey] = Feed(_description, \"\", 0, _bounty);\r\n    }\r\n\r\n    function updateFeed(string memory _id, string memory _newValue) external {\r\n        bytes32 feedKey = keccak256(abi.encodePacked(_id));\r\n        Feed storage feed = feeds[feedKey];\r\n        require(block.timestamp - feed.lastUpdated > 60, \"Too soon\");\r\n\r\n        feed.latestValue = _newValue;\r\n        feed.lastUpdated = block.timestamp;\r\n\r\n        payable(msg.sender).transfer(feed.bounty);\r\n    }\r\n\r\n    function fundFeed(string memory _id) external payable onlyOwner {\r\n        bytes32 feedKey = keccak256(abi.encodePacked(_id));\r\n        feeds[feedKey].bounty += msg.value;\r\n    }\r\n\r\n    receive() external payable {}\r\n}\r\n",
  "sourcePath": "C:\\Users\\DELL\\Documents\\buggy-ai\\contracts\\OracleBounty.sol",
  "compiler": {
    "name": "solc",
    "version": "0.8.0+commit.c7dfd78e.Emscripten.clang"
  },
  "schemaVersion": "3.4.16",
  "updatedAt": "2025-04-16T13:37:02.829Z",
  "networkType": "ethereum",
  "devdoc": {
    "kind": "dev",
    "methods": {},
    "version": 1
  },
  "userdoc": {
    "kind": "user",
    "methods": {},
    "version": 1
  }
}